:02000004C0DE5C
:100000002DE9F0418CB062B602F006FC254F4FF4AA
:1000100088746D4600264FF0010800BF09EB070009
:10002000214605F04CFD284605F08AFD81B20529E0
:10003000ADF82C001CD021BB284603F0BBFD0A9074
:1000400002F036FD304604F003FD404604F000FDAA
:1000500002F0CCFB02F03AFB03F0A2FDA84202D171
:100060000A9803F0A7FDBDF82C000028D6D017E0B1
:100070000A98ADF82C6003F09DFD0A9803F09AFDF4
:10008000CCE70A980024ADF82C4003F093FD0A98C1
:1000900003F090FD02F07EFB20460CB0BDE8F0813D
:1000A00002F0BDFB480600002DE9F04D8EB090F83F
:1000B00000B004460BF07F0ABAF1050F0D910B92C8
:1000C00000F0B980208B154600F0E0FA002800F01F
:1000D000B28090F806C020894FF0000E08900D986D
:1000E000002800F08681002D00F08381E18843F232
:1000F0003903643189B2208BCDE900310D99EAB220
:100100000026CDE903120021002243F23903002723
:10011000D046CDF828C002960C97059600F0F2FA6A
:10012000E188052D1FFA80FACDF818B0C0F0AC8137
:10013000514580F0A981208BEB4A002603217A44A7
:10014000642343F23907CDE90073CDE902620491DB
:100150000021002243F23903059600F0D3FA0D9AEC
:10016000E1884FEA550EB6EB550F02EB55020C92A3
:1001700000F08B81DDF828C08A4540F28881B5EB1C
:100180000E0700F0848180B20990002643F2390303
:10019000208BCDE900310D995FFA8EF24FF0000A05
:1001A000CDE903120021002243F23903F346CDF8D2
:1001B00008A0CDF814A000F0A5FAE18843F23903B5
:1001C00085B2208BCDE900310C99FAB2CDE903124A
:1001D0000021002243F23903CDF808A0CDF814A085
:1001E00000F090FA099980B26A18E18802EB000ADF
:1001F0008A4540F24482012E06D046B9DE46DDF83B
:1002000028C0ABF1010E05E00C9801300C90DDF830
:1002100028C0DE460B9DBEF1000F18BF8A4540F294
:100220003681DDE90C20801A47194FF0010020EAE1
:100230000606ABD12BE100200C9000204FF0000E01
:1002400008904FF0000C0020079000200990E388F0
:100250002689E77A58087108B0EB560F0A4638BF6E
:100260005A08BA42B84603D888422CBF884680460E
:10027000AAF10100042807D3BAF1060F00F0BC80F0
:10028000BAF1070F40F0D080BAF1040F08BF002F79
:100290000BD0BBF1810FCDF828C00FDCBBF1020FF2
:1002A00013D0BBF1070F10D0C1E02069B4F90210E0
:1002B000B4F90420009603F0BDFCB5E0BBF1870F54
:1002C00003D0BBF1820F40F0B2806069B4F9021034
:1002D000B4F90420BAF1070F08BFA2EB0C02089F83
:1002E00008BF3E460096754603F0A4FCAC460B984A
:1002F000DDF828E0002800F097800D98002800F035
:100300009380BAF1040F00F08F805846D4F8108023
:1003100062690BF07D00012806D1207B0128404650
:1003200004BF104642468046079EB4F90210099D5C
:10033000B346208BB4F904706B18BAF1070F08BFED
:10034000CEF1000BE1880BEB070E491BBAF1070752
:10035000258918BF3746CDE900E10D99ED1B002630
:10036000CDE9031C414602950596154600F0CAF9F1
:100370000C99002958D0B4F90420E188DDF824A0B4
:100380000895B4F818E083B20BEB02002A462589E1
:10039000A1EB0A06BC49ED1B79444FF0030CCDE9F3
:1003A0000006CDE90251704641460026CDF810C046
:1003B000059600F0A7F9E3882589B4F90410A3EBAA
:1003C0000A0683B2E81B0B9F0D9D0BEB01022F4425
:1003D0000C9D218BCDE9002602AA7F1BA1C2089AA1
:1003E0004FF0000C08464146CDF814C000F08AF9E1
:1003F0001AE000200C9026E7B4F90210B4F90420AA
:10040000237B20693944012B3A4404D0A37A9F42CC
:1004100001D9FB1A00E000236669FF25CDE90053EE
:100420003B46029600F062FA0EB0BDE8F08D207BEC
:10043000CDF820E0012859D1B4F902102069B4F9AF
:1004400004204144A3EB4803009603F0F3FBB4F906
:10045000042023892069B4F902104244A3EB480721
:100460004346009703F0E6FBB4F90220E188B4F9B3
:10047000043027892069A2EB0802114408EB03022B
:10048000A7EB4807434694E0AE46DDF828C0208B32
:1004900000F44042B2F5004F05D0B2F5804F08D1CC
:1004A000A1EB0A0102E04908A1EB5A0121EAE1713E
:1004B00000E00021DDF818B000F44050C246B0F56D
:1004C000005F099106D0B0F5805F09D12089A0EBCB
:1004D0000C0006E020896FEA5C0101EB500000E0AF
:1004E00000200790B3E600BFDA5A0000B4F902100A
:1004F0006069B4F904204144A3EB4803009603F07B
:1005000099FBB4F9042023896069B4F902104244CC
:10051000A3EB48074346009703F08CFBB4F9023085
:100520006FEA0802E188B4F904701A44238960690B
:10053000114408EB0702A3EB48074346009703F07A
:1005400079FBB4F90210E3882069B4F90420A77A92
:100550004144A3EB4803009703F06CFBB4F904207B
:100560002389B4F902101A44E3882069A77A414428
:10057000013AA3EB4803009703F05CFBB4F90420B5
:1005800027892069B4F90210A37A4244A7EB4807EF
:10059000009703F04FFBE188B4F90220B4F904306E
:1005A00027892069114408EB0302A37A0139A7EBDC
:1005B0004807009703F03EFBDDF820C0B8F1020FBA
:1005C000FFF495AE207BCDF818B001284FF0000B5A
:1005D00004D0A07AB8EB000028BF8346B4F902101B
:1005E000B4F90420D4E90407C02341444244CDE9CE
:1005F000003B4346029700F079F9E188A27AB4F90A
:100600000230B4F904702069194442446669302309
:10061000891A08EB0702CDE9003B4346029600F039
:1006200065F9B4F904202389A77AB4F902101A44B1
:1006300008EB070320696769D21A0C234144CDE90E
:10064000003B4346029700F051F9E188A27AB4F9E1
:100650000230B4F90470194442442389891ABA1A41
:10066000206967691A440323CDE9003B434602979A
:1006700000F03CF9DDF818B0DDF820C037E6DDF811
:1006800028C0DE4603E700BF80580000F0B581B007
:100690000E490F4E7944044608687E446FF31F34B8
:1006A00088B106EB800151F8045C471E284602F031
:1006B00071FF0068A0423846F2D1284601B0BDE87B
:1006C000F04002F067BF002001B0F0BDEC68000010
:1006D000DA68000080B586B09C464FF0000E43F209
:1006E0003903CDE90031CDE902E20021002243F2D5
:1006F0003903CDF814E0CDF810C000F003F880B253
:1007000006B080BD2DE9F04DA0B0289F43F2390519
:1007100083EA05067D4056EA0504254608BF2746BC
:100720000F970B9318BF1D460892CDE91021FFF7D4
:10073000ADFF002800F0C980DDF8B0A08346B4FA10
:1007400084F0BAF1000F4FEA50100D9000F0BF8016
:10075000DDE929109BF8042029440E910F992B9B69
:1007600008440790012090400A92099013F8014B29
:10077000BBF808109BF805E08C4203D3BBF80A00D5
:10078000A0420FD2C02C03D304F03F04002605E0A2
:1007900060B2B0F1FF3F65DD002600244FF0000895
:1007A0001CE000BFDBF81000671A0C93764602F0DD
:1007B000F1FEDBF80C100446084602F0EBFE00EBFD
:1007C00087004188DBF80C0004EB010802F0E2FE30
:1007D000B6460C9B10F827409BF807600F9A0D98BF
:1007E000002805EB040005D00E99A9B30E998842A4
:1007F00032D975E00E9988420ADD0F9A0799724442
:1008000002EB0E000B9F884210460F9201DD6BE059
:100810002F46B8F1000F14D0B4460A9E09990EFB7A
:1008200006F06043009110A90191CDE9038038469C
:10083000114622461D4673460296664603F0E0F9CD
:1008400007E0089839461D462346CDF800E003F03E
:10085000F1F9A0192B463844BAF1010A05467FF494
:1008600085AF35E0A0064FF00F00CDF818E00C93EF
:1008700058BF0E20FFF70AFFF0B10746006902F0EB
:1008800089FEF9688046084602F084FE04F01F04E1
:1008900000EB84004188F868884402F07BFE10F881
:1008A00024409BF806000F9AB97997F805E01044A8
:1008B0000C9B421A002692E70F9A0C9BDDF818E079
:1008C000002600244FF0000889E7002508E02846AC
:1008D0000D9909B1054603E080B20F9940EA014540
:1008E000284620B0BDE8F08DA8B2F6E72DE9F04D1E
:1008F00098B01792219A07469E1A002A104618BFF0
:1009000001200025002E1296C8BF0125002B13934D
:10091000169100F1C281139E209928401590C6F1CE
:100920000100119001F00100129B109001F00200F3
:100930000C90581E079001F004000D9001F0080083
:100940000B9001F010000F9001F020000A9001F0D0
:1009500040000E9001F0800009901698911B104401
:10096000801B0391C3F10101CDE9051001304FF067
:10097000000B4FF0FF314FF0010A4FF000080490D8
:10098000089700BF10984C1C149128B90C980028A7
:1009900053D0159818BB46E01598C8B31798A246CF
:1009A0000844451C07983C46169F331A22984FF07E
:1009B000010C39462A46CDF800C003F03BF90599F1
:1009C000F0192746129B54464FF0010A014438465D
:1009D0002A46CDF800A003F02DF90C9868B31398BF
:1009E000B042179806EB00050AD0039814992A46DE
:1009F0000844831C22981699CDF800A003F01AF938
:100A000006981499129B0844811C38462A4610E027
:100A100017983346421816993846CDF800A003F0CF
:100A200009F90C9848B1179816993044421E384677
:100A30002346CDF800A003F0FDF80D9830B90B98CF
:100A400000285DD0159830BB38E000BF159800280D
:100A50001698A0EB060525D017981499DDF81CA070
:100A60000844471C22984FF0010CA6EB0A032946C4
:100A70003A46CDF800C003F0DDF80898129BA5EBCC
:100A80000A014FF0010A3A46089FCDF800A003F092
:100A9000D1F80B98A0B31398B04218D11798351815
:100AA00024E000BF17981499334642183846294667
:100AB000CDF800A003F0BEF80B9808B316982346B3
:100AC00000EB0B0117983044421E384614E016988C
:100AD000149A00EB0B011798CDF800A03518039875
:100AE0001044831C22982A4603F0A4F80498129B11
:100AF00000EB0B0138462A46CDF800A003F09AF827
:100B00000F9828B90A98002855D0159828BB49E0B5
:100B10001598DDF85CA0DA44C0B30798CDF80880DA
:100B2000A0463C46169F331A229839465246012564
:100B3000009503F07FF80599F0192746129B44466B
:100B4000DDF808800144384652464FF0010ACDF8DE
:100B500000A003F06FF80A9868B313981499B04294
:100B60001798A0EB06050AD003982A460844831C70
:100B700022981699CDF800A003F05CF81499069815
:100B8000129B0844811C38462A4610E016993846C4
:100B9000524633464FF0010ACDF800A003F04AF860
:100BA0000A9840B117981699821B38462346CDF80B
:100BB00000A003F03FF80E9830B90998002857D0EC
:100BC000159818BB33E000BF1698871B15980028AE
:100BD000179800EB0B051FD0A246079C22984FF0F8
:100BE000010C331B39462A46CDF800C003F022F829
:100BF000391B089F129B54464FF0010A38462A467B
:100C0000CDF800A003F016F8099888B31398B04205
:100C100015D11798851B21E0089839462A46334696
:100C20000746CDF800A003F005F8099800B3169820
:100C3000234600EB0B011798821B384614E01698E8
:100C4000149A00EB0B011798CDF800A0851B0398B0
:100C50001044831C22982A4602F0ECFF0498129B51
:100C600000EB0B0138462A46CDF800A002F0E2FF67
:100C700008F10108119A701E4146012AACBF091AF9
:100C8000304602EB410101311191ABF1010B84427D
:100C9000214613960646FFF675AE18B0BDE8F08DF6
:100CA0002DE9F04D88B00E468968022926D8B0F9A2
:100CB0000220B0F9040007920690F0680122D6E9FC
:100CC000007B02FA01F802F065FC3169D6F808A051
:100CD0000546084602F05EFC0446B168D6E900020B
:100CE0005B46484350430490DDE906103A46CDE99F
:100CF0000085CDF808A0039402F082FF08B0BDE89B
:100D0000F08D00002DE9F04581B00746581E0928F6
:100D10004FF0000016D81C4690468A460126002552
:100D20003846294602F054FC48F805000435A6422E
:100D30004FF0000028BF0120554503D8A64206F118
:100D40000106EDD301B0BDE8F08500002DE9F04DBE
:100D500084B015460A46019101390929039302918D
:100D600058D807462D484FF0000A78444FF0000845
:100D70004FF0000B009000BF039957F82A0005EBD5
:100D80000B04A1EB0B06009A20F0004320463146ED
:100D900002F02AFA204604F0E1FEB8B3B04235D2A0
:100DA00057F82A108344B1F1FF3F11DC03981C4A25
:100DB00005EB0B04A0EB0B067A442046314602F00B
:100DC00013FA204604F0CAFE00B3B0421ED2834498
:100DD0000298504511D00398124A05EB0B04A0EB82
:100DE0000B067A442046314602F0FEF9204604F014
:100DF000B5FE58B1B04209D2834408F10108019808
:100E00001FFA88FA8245B7D3012004E003992846E7
:100E100004F055FE002004B0BDE8F08DFE4D00004A
:100E2000294E00009C4D00008268891805D2426856
:100E300091429EBF81600120704700207047D0E939
:100E400001C39C450AD00268D25C0A7081680131F6
:100E500006D24268914298BF816001E0002008708C
:100E6000BCEB030018BF01207047B0B5044615461F
:100E70000A460068D4E901310844591A2B46FFF7A5
:100E800041FF40B1A26802EB8501914203D3626841
:100E9000914298BFA160B0BDB0B5D0E901531446EE
:100EA000ED1A954206D80068C218084611462A462F
:100EB00004F00AFE0020A54298BF0120B0BDB0B5E5
:100EC0000446D0E9013015461A1AAA4284BF002010
:100ED000B0BD236803440846194604F0F5FDA06838
:100EE000401903D26168884298BFA0600120B0BD5C
:100EF000F0B581B0184F0C4609EB070605463046A1
:100F00004FF4497104F0E7FD032086F8F602002053
:100F100009F80700311D28464022FFF7D0FFA0B195
:100F2000012009F8070009EB070000F52375011DF2
:100F30002846224600F006FD0221284609F807103F
:100F400001B0BDE8F04002F0B0BB46F6872001B02A
:100F5000BDE8F04001F0B6BB240300002DE9F041EC
:100F60009EB014AC0E46074620462821904604F059
:100F7000A6FD01AD28464C2104F0A1FD20463946CE
:100F8000324600F017F8512029462246012300F08E
:100F900014F968B905F109014046402204F092FDB8
:100FA00014A8282104F097FD00201EB0BDE8F081B0
:100FB00001F035FC2DE9F04DA0B08846054617A894
:100FC0002021174604F07BFD0EA8212104F077FDB7
:100FD00002A804F0B5FD84B2002CADF8340079D13C
:100FE00002A802F0E7FD022F0C906FD3D8F80000A2
:100FF0003D4988426AD1019521240EAD3A466F469B
:101000000026204641462B463E6002F057FD8DF8F3
:10101000586017AE20272846214632463B4600F04E
:10102000DCF832491FAB794430463A4600F0DDF82F
:1010300008BB2F4E00210DF1380B212717AD2024BE
:101040007E440DF17C0800BF1F98B0F1FF3F14DD16
:1010500001F1010A584639462A4623468DF858A020
:1010600000F0BBF8284631462246434600F0BDF862
:1010700000285146E8D001F0D2FB1E4A20217A44D4
:1010800017A80B4600F0B5F80028F4D1019B5120B9
:1010900017A9202200F095F8002802ACEBD102F04D
:1010A0007FFDA04202D10C9802F084FD17A82021F8
:1010B00004F011FD0EA8212104F00DFDBDF834004F
:1010C0000028D8D1002020B0BDE8F08D4BF20100FF
:1010D00001F0A5FB0C980021ADF8341002F06AFD78
:1010E000204601F09CFB00BF550A00805E5F0000B7
:1010F000445F0000265F0000F0B59DB011AF0D46C3
:10110000064628213846144604F0D9FC38463146B4
:101110002A46FFF74FFF05A804F012FD81B2ADF893
:101120004000C1BB05AD284602F044FD48210F90A8
:1011300004F120001C916F461CA920221BAEC7E9B8
:101140000020B96011A840F2016103222346FE602D
:1011500000F02BF8E8B9DDE91B6702F021FDA84299
:1011600002D10F9802F026FD11A8282104F0B3FC4B
:10117000BDF8400068B9002F07D406F0010084F8DC
:101180006900002084F8687001E04FF0FF301DB066
:10119000F0BD01F044FB0F980C460021ADF8401063
:1011A00002F008FD204601F03AFB03B44FF02400A2
:1011B0002CE003B44FF0260028E003B44FF02A00DF
:1011C00024E003B44FF02B0020E003B44FF02D00D7
:1011D0001CE003B44FF03C0018E003B44FF03E00B5
:1011E00014E003B44FF04E0010E003B44FF0510090
:1011F0000CE003B44FF0550008E003B44FF0620078
:1012000004E0000003B44FF07B00FFE7004908470B
:1012100001808000F0B581B004464068B0F5FF7FE2
:1012200001D9F6208BE00D462068A16808442860AB
:1012300020462021FFF7F8FD002879D02068A1681A
:101240000844686720462021FFF7EEFD002871D092
:101250002068A1680844A86720462021FFF7E4FD24
:10126000002869D02068A1680844E867204620214A
:10127000FFF7DAFD002861D02068A1680844C5F8AE
:10128000800020462021FFF7CFFD002856D021689E
:10129000A268012028718818A86020462021FFF745
:1012A000C3FD00284ED005F10C012046FFF7C7FD15
:1012B000002849D02068A1680844297B286120467D
:1012C000FFF7B2FD002841D0002085F8340005F179
:1012D00035012046FFF7B3FDD0B395F8350085F80A
:1012E0003600E8B105F13806002720463146FFF701
:1012F000A6FD2068A1680844317870602046FFF799
:1013000093FD2068A1680844B06020462021FFF7C3
:101310008BFD95F836000137874206F10C06E4D3C1
:10132000D4E901126FF009008A4208BF012006E0EB
:10133000FF2004E0FE2002E0FD2000E0FC2040B29F
:1013400001B0F0BDFB20FAE7FA20F8E7F920F6E754
:10135000F820F4E780B584B001785A2921D141788A
:101360000022022903920292019221DC89B3012911
:1013700036D0022958D18178012967D8C278002A4D
:1013800064D18268002A67D000790029CDE9012064
:101390004FF00000039001A818BF012100F07CFA73
:1013A00058E04FF4DC4004B0BDE8804001F08AB959
:1013B00003291CD004292FD0FF2935D18168027957
:1013C000019181780020039001A80292FFF790FD1F
:1013D00040E08178D1BBC078C0BB00F09BFA39E017
:1013E000817899BBC07888BB00F042FA32E08178FE
:1013F00002292BD8C278022A28D2836863B30079E5
:10140000002ACDE901304FF00000039001A818BF79
:10141000012202F05FF91DE08178C27839B142F013
:101420008003802B06D011E04FF4DA4010E0802AD0
:101430000CD1802283687BB10079D209CDE90130DB
:101440000020039001A802F0ABF903E046F68620E5
:1014500001F038F904B080BD46F68720F8E70000B7
:1014600070B582B016460C46054604F028FBB668F7
:10147000307808B120230BE0711C202001380206CF
:1014800003D011F8012B002AF8D0C3B2052B05D3E5
:101490000C4A28467A44214600960DE0717F307F41
:1014A000B27F090441EA0060F37F40EA0220064A65
:1014B00003447A442846214601F096FE002002B0FB
:1014C00070BD00BF88470000B646000070B582B00E
:1014D00016460C46054604F0F2FA337833B17668C6
:1014E000084A28467A442146009605E0064A074BFA
:1014F0007A447B442846214601F076FE002002B063
:1015000070BD00BF9C460000BD460000D25A0000DE
:10151000024859F800100120084700BFC40000002D
:10152000024859F800100020084700BFC40000001E
:10153000B0B582B0234D09EB050090F8F60219F81A
:101540000510084305D000214BF2070009F80510EB
:1015500033E01D483C2109EB0004204604F0AFFABB
:1015600009EB050090F8201300F53E7022463C235D
:10157000FFF7ECFBF8B11548862109EB0004204683
:1015800004F09DFA134A09EB0500051D7A44204634
:1015900086214023009501F027FE0F490C4879442D
:1015A00049F800100D4900207944002203F0B6FCF0
:1015B000002002B0B0BD4BF2010002B0BDE8B04067
:1015C00001F080B824030000000000003C0000008F
:1015D000C4000000B546000097440000D05A000047
:1015E0002DE9F04D82B0DFF8A0A109EB0A0090F8D8
:1015F000F602022840F09B8019F80A00012840F00A
:1016000096806D48DFF88481784449F80800604886
:10161000442109EB0005284609EB080B04F04FFABA
:1016200009EB0A07D7F80862644C28467C44442139
:1016300022462023009601F0D7FD614855497844A1
:1016400009EB0105CBF804002846442104F037FAE1
:10165000D7F810622846442122462023009601F044
:10166000C3FD58484C49784409EB0104CBF8080005
:101670002046202104F023FA97F81402D7F81832F4
:10168000514A411C7A44204601F0AEFD97F83E02D3
:101690004E4900287944CBF80C1052D03F4809EB52
:1016A0000A0505F51074484420212246FFF70EFF75
:1016B0003B48412148442246FFF7D2FE95F83E12AE
:1016C000434A09EB08007A44022902613BD33548BA
:1016D00009EB0A0505F51374484420212246FFF75B
:1016E000F5FE3148412148442246FFF7B9FE95F8FE
:1016F0003E12384A09EB08007A440329426124D398
:101700002A4809EB0A0101F51674484420212246B3
:10171000FFF7DCFE2648412148442246FFF7A0FEA1
:101720002D4809EB08017844886107200EE000216C
:101730004BF2070009F80A1002B0BDE8F04D00F0C6
:10174000C1BF042002E0052000E00620234A194919
:101750007A4449F80120224B09EB08017B4441F807
:101760002030204B421C7B44023041F822304FF0A5
:10177000FF3241F820200020002203F0CFFB0020A0
:1017800002B0BDE8F08D00BF240300007402000029
:10179000C80000000C0100005001000070010000B2
:1017A00090010000D1010000F1010000B80200002A
:1017B00032020000C4000000945A0000E545000019
:1017C000765A0000665A000029450000505A000071
:1017D000365A00001C5A0000065A0000014300005F
:1017E000DC58000002590000B0B582B01A4D09EB78
:1017F000050090F8F602012824D119F80500012807
:1018000020D11648442109EB0004204604F057F982
:10181000144A09EB050000F523757A44204644215B
:101820002023009501F0E0FC0F490D48794449F868
:1018300000100E4900207944002203F06FFB0020C5
:1018400002B0B0BD00214BF2070009F8051002B04C
:10185000BDE8B04000F036BF24030000D80200000D
:10186000C4000000F7430000254200003A59000080
:1018700080B584B00748784401F08CFE01900820C0
:1018800002900020039001A84FF4104100F0D2FE16
:1018900004B080BD4A430000F0B581B01C4F0C4637
:1018A00009EB0706054630464FF4497104F013F979
:1018B000002086F8F60209F8070006F54871284668
:1018C000FFF7BDFAC0B109EB070090F8202300F53F
:1018D0003E712846FFF7C9FA70B109EB070292F88A
:1018E000201302F53E700432FFF738FB5CB101B003
:1018F000BDE8F040FFF71CBE46F6872001B0BDE80A
:10190000F04000F0DFBE01B0BDE8F04001F06CBE79
:101910002403000080B584B002200DF101018DF890
:1019200001000020019103218DF802008DF80300D1
:10193000CDE9021001A84FF4104100F07BFE04B085
:1019400080BD00002DE9F0410C468046022A01F1DD
:1019500020060AD3571E002520462146324600F0B5
:101960000BF80135E8B28742F6DC404621463246A4
:10197000BDE8F04100F000B8F0B587B00E4604466F
:10198000202000211546202701F0B6FF03A8512191
:1019900002F01EF850BB174820227844411C00F189
:1019A000210303A8009702F02DF8F8B9012703A836
:1019B000314601222B460097019700F055F9A8B94E
:1019C0001F20711C6B1C0025009003A81F2201958D
:1019D00000F04AF950B903A82146202200230095BF
:1019E00002F020F810B903A801F0FEFF01F090FF0B
:1019F00007B0F0BDBE59000070B582B0044620208B
:101A00000021002501F078FF01A820212246202393
:101A100001F088FF8DF8035040F201160DF1030527
:101A2000012E1ED00198B11E2A4601F0A1FF9DF89B
:101A30000300013E0028F3D0F82E12D306F0070071
:101A4000013803280FD80198042101F0A9FF01985B
:101A50002146202201F080FF01A801F06FFF01F074
:101A600057FF02B070BD4FF4D54000F0D8FE000023
:101A70002DE9F04DADF5107D05460669077B8846DA
:101A800006A84FF48071FFF7ACFBB8B9202005F130
:101A9000140A019006A8012132463B46CDF800A069
:101AA000FFF797FB50B92020002101F025FF88A8FF
:101AB00020215246202301F035FF18B10DF5107D8D
:101AC000BDE8F08DFF2600BF8898314601F05CFF2D
:101AD0000028F3D1013EFA2EF6D2889851462022F2
:101AE00001F03AFF0028E9D188A801F027FF01F0B2
:101AF0000FFF286820210390686F0490D5E91E60CD
:101B00000290D5F88000059080A803F0D8FF78AC4B
:101B10002046202103F0D3FF70A8202103F0CFFF3F
:101B20000DF1180B5846202103F0C9FF88AF384645
:101B30001F2103F0C4FF287959468DF83F0258460B
:101B40003A4600F049F9AA685846594600F044F967
:101B500058465946524600F03FF995F83400594628
:101B60008DF83F0258463A4600F036F995F83500B0
:101B700059468DF83F0258463A4600F02DF995F83F
:101B8000360059468DF83F0258463A4600F024F98F
:101B900095F83600A0B1B346A24605F140060024F0
:101BA00006AF56F80C2B3846394600F015F995F873
:101BB000360001348442F4D3023054465E4600E0DD
:101BC0000220297970AF00EB81008DF83F0206A951
:101BD00088AA384600F000F9224904F11A00794435
:101BE000062203F06FFF80AD28462946224600F00A
:101BF000F3F8029A2846294600F0EEF8039A2846A0
:101C0000294600F0E9F82046202103F058FF284635
:101C10002946224600F0E0F8284629463A4600F0D8
:101C2000DBF8049A2846294600F0D6F8059A28469B
:101C3000294600F0D1F828462946324600F0CCF873
:101C400020461F2103F03BFF08208DF8FF0140468E
:101C50002946224600F0C0F84046FFF7CDFE00209E
:101C60002CE700BF725700002DE9F04D9CB00F46E5
:101C7000824618A851211D46164601F0A9FE0028EB
:101C800040F0A58014A8512101F0A2FE002840F0E8
:101C90009E8025984F4900EB801079440C18611CF8
:101CA00004F121034FF0200818A82022CDF800806D
:101CB00001F0A8FE002840F08A8004F1830104F1BD
:101CC000A30314A82022CDF8008001F09BFE002879
:101CD0007DD10DF13008DDF890B04046202103F0B1
:101CE000EEFE04AC2046202103F0E9FE1EB1387858
:101CF00018B101200EE000200CE0012001468642D0
:101D000004D0785C002801F10100F7D00020B14236
:101D100038BF0120BBF1000F3FD0297809B178B955
:101D200030E001221146934504D06A5C002A01F19B
:101D30000102F7D00022594538BF012210421FD0BE
:101D4000A8EB060020303946324603F0BBFEA4EB78
:101D50000B00203029465A4603F0B4FE18A820276D
:101D600014AA01464346CDE90074029701F082FEB1
:101D700068BB18AA5046514601F064FE38BB1FE00C
:101D800059450AD2A4EB0B00203029465A4603F0ED
:101D900099FE14AD284621460AE088B1A8EB06005A
:101DA00020303946324603F08DFE18AD28464146B4
:101DB000202201F053FE504651462A4601F042FED1
:101DC00018A801F011FE10B914A801F00DFE1CB006
:101DD000BDE8F08DFF560000F0B591B00F461449F4
:101DE0006D461646044679442846412203F06AFEB1
:101DF000284639460122012300F01CF8791C2846A8
:101E00001F22002300F016F8284631460122032342
:101E100000F010F8711C28461F22022300F00AF877
:101E2000691C2046202203F04DFE11B0F0BD00BF1A
:101E3000725500002DE9F0419AB0002A3ED00446C8
:101E4000087815460E4658B9012100BF08468D4254
:101E500004D0315C002900F10101F7D0A8422DD255
:101E6000194803EB831178440DF1200801444046E2
:101E7000412203F027FE6F463846202103F01FFE63
:101E8000781B203031462A4603F01CFE5120414683
:101E90003A462023FFF799F998B919A9512001F082
:101EA0008BFD70B908AB512021462246FFF781F91E
:101EB00038B919A9512001F07FFD10B91AB0BDE859
:101EC000F08100F0ACFC00BF3355000000F035BEDF
:101ED000F0B581B0DFF8A05619F805000D2805DC33
:101EE000052800F0FA800D2812D087E00E2800F0B7
:101EF0006A81152840F08280DFF88806484480799E
:101F0000012805D109EB05008079000740F13083F5
:101F1000DFF86856012009F8050009EB05040020E8
:101F20006060204601F0E6FD042001F051FE00282B
:101F3000606000F01583972800F01283692840F054
:101F40006A8200F0CFFD00F0CFFDDFF834460020BC
:101F500009EB0406A6F8CA00042001F039FED6F801
:101F6000CC1009EB05020029506000F0F98200282E
:101F700000F0F682972800F0F38209EB0400B0F835
:101F8000CA1090F8D000814280F0EA8201F08AFD08
:101F9000AA2804D101F0A2FDAA2840F0E18209EBB1
:101FA0000401B1F8CA0091F8D020904280F0788105
:101FB000014609EB0402D2F8D830D2F8CC2002EB6B
:101FC00040103BB1984760B109EB0401D1F8CC2037
:101FD000B1F8CA1089B2012808BF02EB411000F025
:101FE000ACFD09EB0403B3F8CA0093F8D020411C00
:101FF00088B29042A3F8CA10DBD351E1DFF87C55D8
:10200000012009EB050409F805000026204666605A
:1020100001F070FD042001F0DBFD6928606040F0F4
:10202000458100F05FFD00F05FFDDFF854450420BE
:1020300009EB0407A7F8CA6001F0CAFDD7F8CC1075
:1020400009EB05020029506000F08A82002800F0A8
:102050008782972800F0848209EB0400B0F8CA1048
:1020600090F8D000814280F07B8201F01BFDAA280D
:1020700004D101F033FDAA2840F0728209EB04017B
:10208000B1F8CA0091F8D020904280F00981014651
:1020900009EB0402D2F8D830D2F8CC2002EB401081
:1020A0003BB1984760B109EB0401D1F8CC20B1F8FD
:1020B000CA1089B2012808BF02EB411000F03DFDB3
:1020C00009EB0403B3F8CA0093F8D020411C88B28E
:1020D0009042A3F8CA10DBD3E2E0DFF8A06401204D
:1020E00009F8060009EB060400206060204601F0B4
:1020F00001FD042001F06CFD0028606000F03082DA
:10210000972800F02D82692840F0CD8100F0EAFC8C
:1021100000F0EAFCDFF86844002009EB0405A5F8AC
:10212000CA00042001F054FDD5F8CC1009EB0602DA
:102130000029506000F01482002800F011829728D6
:1021400000F00E8209EB0400B0F8CA1090F8D0003D
:10215000814280F0058201F0A5FCAA2804D101F09B
:10216000BDFCAA2840F0FC8109EB0401B1F8CA00CB
:1021700091F8D020904280F09380014609EB040250
:10218000D2F8D830D2F8CC2002EB40103BB19847BF
:1021900060B109EB0401D1F8CC20B1F8CA1089B2C2
:1021A000012808BF02EB411000F0C7FC09EB040353
:1021B000B3F8CA0093F8D020411C88B29042A3F82B
:1021C000CA10DBD36CE0DFF8B463012009EB06052D
:1021D00009F80600002728466F6001F08BFC0420F8
:1021E00001F0F6FC6928686040F0A98000F07AFCF4
:1021F00000F07AFCDFF88843042009EB0405A5F819
:10220000CA7001F0E5FCD5F8CC1009EB06020029F4
:10221000506000F0A581002800F0A281972800F00E
:102220009F8109EB0400B0F8CA1090F8D0008142F9
:1022300080F0968101F036FCAA2804D101F04EFC12
:10224000AA2840F08D8109EB0401B1F8CA0091F889
:10225000D020904224D2014609EB0402D2F8D830B3
:10226000D2F8CC2002EB40103BB1984760B109EBAB
:102270000401D1F8CC20B1F8CA1089B2012808BFF6
:1022800002EB411000F059FC09EB0403B3F8CA005B
:1022900093F8D020411C88B29042A3F8CA10DBD337
:1022A000904240F05D8101F0A1FC59E1B44C09EB92
:1022B0000400D0F8CC00002800F0488109EB0400AD
:1022C000B0F8CA1090F8D000814280F03F8101F050
:1022D000E9FBAA2804D101F001FCAA2840F03681CC
:1022E00009EB0401B1F8CA0091F8D020904280F0C7
:1022F0002981014609EB0402D2F8D830D2F8CC206B
:1023000002EB40103BB1984760B109EB0401D1F8F2
:10231000CC20B1F8CA1089B2012808BF02EB4110E5
:1023200000F00BFC09EB0403B3F8CA0093F8D020CB
:10233000411C88B29042A3F8CA10DBD302E1904D51
:10234000044609EB0500D0F8E400A0B1B0F1640246
:1023500038BF002209EB05016428C1F8E4200AD83F
:10236000D1F8E01039B109EB0500D0F8E820C0F849
:10237000E42000208847002C00F0F280972C00F029
:10238000EF8009EB0500D0F8CC00002840D009EB25
:102390000500B0F8CA1090F8D000814238D201F0A0
:1023A00081FBAA2803D101F099FBAA2830D109EBBF
:1023B0000501B1F8CA0091F8D020904224D201461C
:1023C00009EB0502D2F8D830D2F8CC2002EB40104D
:1023D0003BB1984760B109EB0501D1F8CC20B1F8C9
:1023E000CA1089B2012808BF02EB411000F0A5FB1A
:1023F00009EB0503B3F8CA0093F8D020411C88B25A
:102400009042A3F8CA10DBD3904208BF01F0EEFB64
:1024100009EB05009CE05A4C09EB0400D0F8CC0015
:10242000002800F0938009EB0400B0F8CA1090F87F
:10243000D000814280F08A8001F034FBAA2804D1C8
:1024400001F04CFBAA2840F0818009EB0401B1F8AF
:10245000CA0091F8D020904274D2014609EB0402E0
:10246000D2F8D830D2F8CC2002EB40103BB19847DC
:1024700060B109EB0401D1F8CC20B1F8CA1089B2DF
:10248000012808BF02EB411000F057FB09EB0403E1
:10249000B3F8CA0093F8D020411C88B29042A3F848
:1024A000CA10DBD34EE0364C09EB0400D0F8DC0058
:1024B00028B109EB0501C978490800F065FB09EB73
:1024C0000400D0F8CC00002840D009EB0400B0F89C
:1024D000CA1090F8D000814238D201F0E3FAAA285D
:1024E00003D101F0FBFAAA2830D109EB0401B1F8BD
:1024F000CA0091F8D020904224D2014609EB040290
:10250000D2F8D830D2F8CC2002EB40103BB198473B
:1025100060B109EB0401D1F8CC20B1F8CA1089B23E
:10252000012808BF02EB411000F007FB09EB040390
:10253000B3F8CA0093F8D020411C88B29042A3F8A7
:10254000CA10DBD3904208BF01F050FB09EB040036
:10255000B0F8CA1090F8D000814228BF01F008FB03
:1025600001F006FB08B900F061F9012001B0F0BDEF
:10257000052000F054F900BF58070000840800004F
:10258000480600009009000010B5044600F007005E
:1025900001280AD0022811D10A48484439B101F073
:1025A000DBFA200648BF01F09DF9002010BD4FF472
:1025B00082710022BDE8104001F0E4BA022000F070
:1025C0002EF900BF8C0800000348044A002149F896
:1025D000001009F8021070471C03000020030000DF
:1025E00010B5124C19F8040002280CD0012810D0A4
:1025F00060B90F48012239F80010002009F80420C2
:1026000000F024FB10BD002009F804004FF0FF305B
:1026100010BD0748022239F80010102009F80420E4
:1026200000F014FB012109F8041010BD2003000084
:102630001C03000070B50C46B8B105464068A96897
:10264000401AB0F5817F0CD81B484FF4827209EB19
:1026500000012846FEF720FC18B1D5E90101411A16
:1026600004E000214FF4304400E000211248134DF3
:102670004844224649F8051003F01AFA104C59F85C
:10268000050019F80410023001294FF0000649F83E
:10269000050009D002290BD181B2202000F0D6FA22
:1026A000002149F8051000E0002009F8046070BD21
:1026B0004FF0FF3070BD00BF8C0800001C0300000D
:1026C0002003000001460020FFF7B4BF2DE9F045CC
:1026D0008FB0FFF779FF2D484FF44971484403F05C
:1026E000FAF9DFF8ACA06C4600260CAD46F6872858
:1026F000204603F025FA87B2ADF82C0057B1052F1C
:102700003BD00A98ADF82C6001F054FA3846FFF738
:10271000D9FF16E0204601F04DFA0A90CDE90C668B
:102720000E96FFF75DFF00281FD4024609EB0A0151
:10273000284600F00DFF88B12846FEF70BFE002862
:1027400013D401F02DFAA04202D10A9801F032FA16
:10275000BDF82C000028CBD00DE000BF4046FFF7AD
:10276000B1FF0A9801F026FAC2E70A9801F022FAAE
:102770000FB0BDE8F08500F052F80A980021ADF8DE
:102780002C1001F017FA052000F049F8240300008E
:102790008C08000010B58CB06C46204603F0D0F9D0
:1027A0000104ADF82C000BD001F0FAF9A04202D1DF
:1027B0000A9801F0FFF9BDF82C0040B90CB010BD2B
:1027C000684601F0F7F90A90FF2001F0B7F900F030
:1027D00026F80000024900207944002202F09EBB46
:1027E000BC4D0000FF2001F0A9F9000080B50748AA
:1027F00019F8000008B903F043F8054900207944AE
:102800000022BDE8804002F089BB00BF48060000FE
:10281000364D0000FFF7EABF002001F0CBB90446B7
:1028200001F0BEF9214603F091F9000002480521AC
:10283000784401F091B900BF744D000010B51C48F8
:102840004844C078032809DC012812D0022824D18A
:1028500018484844BDE8104001F0E8BC04281DD0E9
:10286000082818BF10BD13484844BDE8104001F0C7
:10287000DABC1048012109EB0004204601F0CDFC30
:10288000204601F0ABFC0C4809EB0001897959B9ED
:1028900048440C30122103F012F910BD0548484499
:1028A000BDE8104001F0BDBC0520FFF7B8FF00BF38
:1028B00058070000140A00009009000000F07F0093
:1028C000052884BF00207047024949440844007B22
:1028D000704700BF9009000080B51C4A09EB020157
:1028E0000879C978042801F07F010CD002281BD098
:1028F000012818D1174809EB020148440631BDE808
:10290000804001F07CBB052988BF80BD10484A4447
:1029100053794844DFF83CC00844037309EB0C00CA
:10292000063201F099FB80BD0529FCD80848094B07
:10293000484400EB41004FF0000C4A44A0F812C09C
:1029400009EB0300063201F0DBFB80BD58070000F5
:1029500090090000140A0000FF2A88BF704770B574
:10296000044612480E46502109F800104844D11C74
:1029700015460A0A817044F08001C170202101715E
:1029800006214270457101F0E7F83046294601F012
:10299000E3F8074804F07F01484400EB41004FF49E
:1029A000FA614182BDE87040704700BF58070000DF
:1029B000900900000A46014682201423FFF7CCBF8D
:1029C0000A46014683201423FFF7C6BF80B5354968
:1029D00009EB0102537819F8010092780F2842EAB6
:1029E00003220DDD102814D0162816D01A284AD13B
:1029F00009EB0100C078032845D102F059FF48E0F7
:102A00000E2824D00F283ED1012A04D1FFF716FF4B
:102A10003FE0032A3BD2002080BD234819F8003054
:102A2000BBBB09EB000C06238CF806300A2309F81F
:102A300000301E48494448440331B2F5807F88BFC6
:102A400040F20112ACF8022003F03CF821E0DFF87C
:102A500058C009EB0C018A6864328A600E2100BFFD
:102A600009EB0C0232F8112052B11346642A98BFC8
:102A70006423643B09EB0C00642A20F811300AD966
:102A800001390829ECD10220FFF722FA80BDFFF7B7
:102A900023FF012080BD002009F80C000520FFF76E
:102AA000BEFE00BF58070000900900008C0800001F
:102AB00080B500F00CFF0D280DD2084820214844B5
:102AC00002F0FDFF00F0E8FA0548002149F8001087
:102AD0004844416080BDFF2001F030F890090000BB
:102AE000B0090000704700000348002149F80010B9
:102AF00048444160704700BFB0090000B0B588B0DD
:102B00000546084600F046FDA8B10446006990B1AC
:102B1000284600F03FFD01AD014628461C2202F088
:102B2000D1FFD4E90001ADF80A00ADF80C10284639
:102B30002146FEF7B5F808B0B0BDB0B500F02AFDEB
:102B40000446C06900F026FD217811F07F0108BF1E
:102B5000B0BD054650B1052901D1A07E70B128460F
:102B600002F0FCFF82B22046294602E02046002106
:102B700000220023BDE8B040FDF796BA2046294662
:102B8000BDE8B040FFF7BABFB0B110B5DFF864E000
:102B9000844659F80E000B4609EB0E01496898422D
:102BA00002BF013109EB0E02516040EA030023B17C
:102BB000024649F80E0008E07047002209EB0E04B7
:102BC00049F80E20626040F000409A421EBF09EBB7
:102BD0000E0200235360082908D3074A4A4312F122
:102BE000AA3F38BF40F0804020F00040BDE81040D0
:102BF000604700BFB0090000ABAAAAAAF0B581B037
:102C00001148012509EB000609F80050B11C01200C
:102C10004FF4817200F086FF04467070871940F20D
:102C20000110F91C021B022000F07CFF0444264422
:102C3000B870F57000F06CFF307190200021707159
:102C4000E01DB17101B0F0BD8C0800002DE9F04D20
:102C500082B083464007884608D05FFA8BF01FFA9F
:102C600088F102B0BDE8F04DFFF78EBC8948874F70
:102C700078440090884D844C7D440026DA465FEA13
:102C800008400AF0100000F08580002840F08280A3
:102C9000019000BF00F06CFF50B109EB04004FF44D
:102CA0009671002200F06EFF012000F0FDF8F1E7C0
:102CB00009EB070019F807108668092906DD0A29BB
:102CC0000CD00B2926D17648784402E000980729D9
:102CD0001DD11FFA88F100F067FA24E01FFA88F688
:102CE000B6F5827F00F2CD80532009F8040009EB8D
:102CF00004004FEA18214170032180F8028000F09F
:102D00002BFF63483146484400F026FF2BE00029A2
:102D100000F0B4805FFA8BF01FFA88F1FFF734FC03
:102D2000002840F0AB8019F80700E0B106F5FA661C
:102D30002846052100F010FF09EB04004FF49671BE
:102D4000002200F01FFF09EB07008068B04280F00E
:102D50008F80FFF73BFE00F00BFF0028ECD119F845
:102D600007000028E4D1002009EB07015FEA8B622D
:102D700009F807008871488076D4484805217844CE
:102D800000F0EAFE4FFA8BF0B0F1FF3F01984FF0F0
:102D9000000670DD38B95FEA4A6061D409EB0700CC
:102DA00009F807608671AA46394D09EB070046808D
:102DB0003C480521784400F0CFFE09EB04004FF4B5
:102DC0009671002200F0DEFE032815D309EB040102
:102DD0004A78897841EA0221033181420CD1FFF718
:102DE000F5FD19F807000028E2D009EB070040883C
:102DF0000028DDD004E000BF09F80760D5E700BF78
:102E000019F80510B0292FD109EB05014978A72938
:102E10000ED0012901BF09EB05018A78C97851EA72
:102E2000020121D1FFF7EAFE80460BF0070B0FE00D
:102E300009EB05018A78C978114315D1902009F86A
:102E4000050009EB05006BF07F0B4FF002084670A0
:102E500055465FEA4B705FFA8BFA3FF410AFFCE621
:102E600009EB07004088053880B202B0BDE8F08D5C
:102E70000520FFF7D4FC052000F060FE0420FFF7DA
:102E8000CEFC0220FFF7CBFC5807000090090000A1
:102E90008C08000041FDFFFF2C490000264800007F
:102EA000F5FCFFFFF0470000B0B5044611480521CE
:102EB000784400F051FE0D4D4FF4967109EB05007A
:102EC000002200F05FFE19F80500152808D801213E
:102ED000074A01FA00F0104202D00CB10020B0BD48
:102EE000FFF774FD002818BF0120B0BD580700008F
:102EF00020702000F44600002DE9F04581B0DFF895
:102F00007CA10E4609EB0A0114468E4280460ED083
:102F100009EB0A0738464021402502F0D0FD402C3D
:102F200038BF2546384631462A4602F0CDFD09EB2A
:102F30000A00807801280BDCB0B3012840F09680AD
:102F400009EB0A04E01C0421FEF757F9204639E09A
:102F5000022835D0052840F0898009EB0A00484E48
:102F6000C178007959F8062040EA012082422BD12D
:102F700059F80600B8B34349601F59F8012083B2DD
:102F80009A4238BF59F8010081B23B293E4928BF17
:102F90003B2059F8015084B209EB0A00411D284634
:102FA000224602F091FD52E009EB0A00002401469E
:102FB00001F8034FCC708C7040210471C04704E0CD
:102FC00009EB0A004021C04700242D48002149F8A0
:102FD00000102C482C4A49F8001049F802102046ED
:102FE00001B0BDE8F08509EB0A00417982792748F4
:102FF00042EA012149F8001059F80010B1F5827F2A
:10300000E2D859F800001F4909EB0A0249F801000B
:1030100019F80A0052781E4B42EA002249F80320B0
:10302000E01F59F8012083B29A4238BF59F80100D5
:1030300081B23929174928BF392084B209EB01052B
:1030400009EB0A00C11D2846224602F03BFD0E494D
:1030500028190C4A49F8010059F80200001B49F8E8
:10306000020059F80600013049F80600054859F8F1
:10307000000008B10124B2E70224A6E7B809000065
:10308000F8090000000A0000040A0000FC09000022
:10309000080A00008C0800000548002149F80010CB
:1030A0000448054A49F8001049F80210704700BF6B
:1030B000F8090000000A0000040A00002DE9F04DA4
:1030C000334EDFF8D0A059F8061061B359F80A4022
:1030D0004CB3DFF8CC80834609EB0805681D3B2123
:1030E00002F0EDFC2F482C4F59F80010090A09F89E
:1030F000081059F8000068700520A87059F80700FA
:10310000000AE87059F80700287159F8071059F8B3
:103110000600A9B13B2809EB080094BF59F80650F6
:103120003B2505301BE01C48002149F800101B48D6
:1031300049F8061049F80A1009F80010BDE8F08DAA
:10314000392894BF59F80650392559F8060009EB7B
:103150000801000A487159F806008871C81D214607
:103160002A4602F0B1FC601949F80A0059F8060035
:103170005B46401B49F8060059F807004021421CF5
:1031800009EB080049F80720BDE8F04D184700BFDB
:10319000000A0000040A0000F8090000900900007D
:1031A000B8090000080A000091B1DFF828C0002328
:1031B000094A49F80C30DFF824C04A44084B49F862
:1031C0000C20084A49F8031049F80210FFF776BFAF
:1031D000704700BFF80900008C080000040A0000D6
:1031E000000A0000FC09000081B02DE9F04D89B013
:1031F0000028119300F09C810E460229C0F09881AE
:1032000031461546804602F05AFC287811A900285C
:10321000049100F08D81741E002700BF30B1252875
:1032200004D0E81940780137F8E700BFA74228BF6B
:103230002746404629463A4602F046FCE41B00F089
:103240007781E85DB84425283D4440F05F81013531
:103250004FF0000B202200260020013515F8011C3C
:1032600001352D2912DC4FF00000F7D0252900F0A0
:10327000E6802A2940F048812B4613F8010D732877
:1032800040F05481049902201D4625E0472927DC9F
:10329000A1F130030A2B0DD281F0300353EA0B0366
:1032A0000BEB8B0301EB430108BF3022A1F1300B84
:1032B000013DD2E72E2940F0278115F8010C2A287C
:1032C00040F034812878482804D0732802D0682838
:1032D00040F02B81049901200B1D04930E68BCE77C
:1032E00067290CDC622912DC482900F0AC805829DF
:1032F00040F00A81CDF80C804FF0010C27E07229D4
:103300001BDC682900F0A28070291CD0FCE0632936
:1033100000F0A180642940F0F7800498CDF80C807B
:10332000011D049100680028074600D54742C00FE0
:103330004FF0000C4FF00A0810E0732900F0958060
:10334000782940F0E1804FF0000CCDF80C80049813
:103350004FF01008011D049107680020B84502D9FC
:103360004FF0010A0FE0ABF1010341468A46A8FB8A
:103370000116002E18BF0126B9429B4603D8002E25
:10338000ABF10103F2D00028034618BF4FF0FF3322
:1033900048B1D1B230290AD12D2101264FF0010EBA
:1033A0008DF8141006E04FF0010E002602E0002612
:1033B0004FF0000EABEB0000811E0D2911D8411E0D
:1033C0000FD005A83044D2B2CDF808C0CDE9003EF8
:1033D00002F07CFB009906EB0B00DDE901EC0844F0
:1033E000461EBEF1000F05A902BF2D2088550136EB
:1033F000BAF1000F16D0544A54487A447844BCF1CC
:10340000000F08BF104600BFB7FBFAF3D045B3FB6F
:10341000F8F2BAFBF8FA02FB1832825C8A5506F120
:103420000106F1D9A64228BF2646DDF80C803246B7
:10343000404602F049FBA41B7AD0B04464E0013C52
:103440004FF025000DE03E4A7A4401E03D4A7A44BF
:103450004FF0010C0DE00498013C00F104010491CF
:10346000006808F8010B4FD162E0344A4FF0000CBD
:103470007A440499C0B20B1D04930968022841D014
:10348000012808D03E4630B9002000BF0B5C013057
:10349000002BFBD1461EBCF1000F1BD0A6B3A4EB42
:1034A000460000BF022C43D30B78022C4FEA1317BF
:1034B000D75D03F00F0388F80070D35C88F8013003
:1034C00036D0023C08F10208013E01F10101E9D1C8
:1034D000044619E0A64228BF26464046324602F07E
:1034E000F3FAA41B24D03746BB45B0440CD9ABEB50
:1034F0000706A64228BF264640463146202202F053
:10350000E5FA98E7087828B115F8010D00287FF44E
:1035100083AE0DE0A64228BF264640463146202213
:1035200002F0D4FAA41BDFD102E02A20013DEDE72E
:10353000002009B0BDE8F04D01B0704739410000EE
:10354000714100005B410000AF410000BD4100003F
:10355000052A14D30B79053A9A4210D10A780270E1
:103560004A7842708A788270CA78C2700A79027189
:103570000A79002A18BF4A1D826001207047002086
:10358000704700007A460249C91C891A401A7047E0
:103590008535DEC00A4981420A4906D8814204D3F2
:1035A00080B5FFF7EFFFBDE8804007498842074A32
:1035B00005D3904288BF7047401A4A46104470476E
:1035C0000000DEC0007EDEC000007ADA00787ADA21
:1035D0004218405C517893780904D27841EA00603F
:1035E00040EA03201044704710B594B00D494120C3
:1035F0008DF80E0004200DF10E0449448DF80F00E3
:10360000A01C0431402202F05DFA4220019000200B
:10361000029068464FF410410094FFF70BF814B085
:1036200010BD00BF240300002DE9F04194B00DF15E
:103630000E08044608F10100402102F040FA94F817
:103640002350412004268DF80E0004F12007212D7F
:1036500004BF05262025A8EB05002130B9192A460C
:1036600002F030FAB01C4119C8B2384410F8012CED
:1036700008F14100212A04BF01312022C9B2801A79
:10368000394402F01FFA94F869004FF410418DF8A4
:103690004F0042200190002002906846CDF8008043
:1036A000FEF7C8FF14B0BDE8F081B0B58CB004AC33
:1036B000014620462022202502F004FA0020039033
:1036C00001A84FF41041CDE90145FEF7B3FF0CB05E
:1036D000B0BD000070B5314E0446B9B109EB06002B
:1036E00090F8F602012834D11546626809EB06000D
:1036F00000F523712046FDF7E2FB38B3012009F8FD
:10370000060065B3BDE87040FEF76EB809EB06052C
:1037100028464FF4497102F0DEF9012085F8F602DF
:10372000002009F8060005F548712046FDF787FBE3
:1037300060B109EB060090F8202300F53E712046A9
:10374000FDF793FB10B14FF4104004E046F68720DC
:1037500001E04BF20700BDE87040FEF7B3BF09EB94
:103760000602022092F8201309F8060002F53E70C6
:1037700002F52372FDF7C0FCB0F1FF3F07DD09EB56
:10378000060000F52370BDE87040FFF74DBF002133
:103790004BF2080009F80610DDE700BF2403000023
:1037A00070B584B0044631B3434D09EB050090F881
:1037B000F602022840D109EB05001346D0F80402B6
:1037C000626802EB0001EBB3B1F5FF7F67D809EB4C
:1037D00005010844011D2046FDF771FB00285ED05D
:1037E00009EB05016068D1F8042202444FF410404F
:1037F000C1F8042255E0304E4FF4497109EB06053B
:10380000284602F068F9022085F8F602002009F83F
:10381000060005F548712046FDF711FB78B109EB6C
:10382000060090F8202300F53E712046FDF71DFBB1
:1038300028B14FF4104034E04BF2070031E046F677
:1038400087202EE0B1F5FF7F29D809EB0501084458
:10385000011D2046FDF733FB08B309EB0501606845
:10386000D1F804220B1D1044C1F80402CDE9013047
:103870000020039001F5027101A8FDF7CBFC01289F
:1038800014D1012009EB050109F8050001F50270CA
:1038900001F52371FEF7ECF8FDF7A2FE0AE04BF20A
:1038A000040004B0BDE87040FEF70CBF4BF2050009
:1038B000FEF708FF04B070BD2403000001DF0029FB
:1038C00000D170470846FEF7AAFF01DF704780B5B8
:1038D00082B00020CDE9000069460120FFF7EEFF2D
:1038E00002B080BD80B582B0002001906946022000
:1038F000FFF7E4FF02B080BD80B582B0CDE90001E2
:1039000002486946FFF7E1FF02B080BD12010002E4
:1039100080B582B0002001906946B620FFF7D5FF40
:1039200002B080BD80B584B08DE80F0002486946C2
:10393000FFF7CBFF04B080BD1401000480B582B056
:1039400000900020019003486946FFF7BEFF02B0D7
:1039500080BD00BFBC00000180B584B001AB07C3CF
:10396000024801A9FFF7B1FF04B080BDC300000306
:1039700080B584B001AB07C3024801A9FFF7A5FFDA
:1039800004B080BDCB00000380B582B0CDE900015A
:1039900002486946FFF799FF02B080BDCD000002E2
:1039A00080B582B0CDE9000102486946FFF78DFF7E
:1039B00002B080BD1C01000280B582B0CDE90001DB
:1039C00002486946FFF781FF02B080BD2F01000267
:1039D00080B582B0CDE9000102486946FFF775FF66
:1039E00002B080BDF100000280B582B000900020DE
:1039F000019003486946FFF768FF02B080BD00BF31
:103A0000F200000180B586B00DF1040EDDF820C093
:103A10008EE80F10024801A9FFF757FF06B080BDDE
:103A2000F300000580B586B00DF1040EDDF820C06E
:103A30008EE80F10024801A9FFF747FF06B080BDCE
:103A4000F500000580B584B001AB07C3024801A9A9
:103A5000FFF73BFF04B080BD0E01000380B584B0CA
:103A600001AB07C3024801A9FFF72FFF04B080BDD7
:103A70002701000310B588B0DDF830C0DDE90A4E3B
:103A800001900748029101A9039204930594CDF88F
:103A900018E0CDF81CC0FFF718FF08B010BD00BF3C
:103AA0004801000780B582B00020019069469F2040
:103AB000FFF704FFC0B202B080BD000080B586B041
:103AC0000DF1040EDDF820C08EE80F10024801A9A8
:103AD000FFF7F4FE06B080BD5300000580B582B04C
:103AE000002001906946A020FFF7E8FEC0B202B0B6
:103AF00080BD000080B582B0009000200190034896
:103B00006946FFF7DBFE02B080BD00BF6400000124
:103B100080B582B00020019069466A20FFF7CEFE92
:103B200002B080BD80B584B001AB07C3024801A9D3
:103B3000FFF7C4FE04B080BD7400000382B00090A3
:103B40000020019003486946FFF7B8FEFFDE00BF82
:103B5000FEE700BF9A00000180B582B0CDE9000108
:103B600002486946FFF7AAFE02B080BD830000024A
:103B700080B582B00020019069468420FFF79EFE48
:103B800002B080BD80B584B001AB07C3034801A972
:103B9000FFF794FE80B204B080BD00BF8500000333
:103BA00080B582B00020019069468720FFF786FE2D
:103BB00002B080BD80B582B0009000200190034823
:103BC0006946FFF77BFE02B080BD00BF0B0100011C
:103BD00080B582B000900020019003486946FFF74D
:103BE0006DFEC0B202B080BD9C00000180B582B005
:103BF0000020019069467A20FFF760FE02B080BD88
:103C000070B58AB0DDF848C0DDE9104EDDE90E651B
:103C100001900748029101A9039204930596CDE90A
:103C20000654CDE908ECFFF749FE0AB070BD00BFAD
:103C30007C00000980B586B00DF1040EDDF820C0CF
:103C40008EE80F10024801A9FFF738FE06B080BDCC
:103C50007D00000504480021044A49F800100020B6
:103C600049F80210704700BF0C0A0000100A00005B
:103C700080B508484F2109F80010484400214170E0
:103C8000012181700221C1700421FFF765FF00202E
:103C900080BD00BF5807000070B582B002208DF8CB
:103CA000050003200DF103044F2500268DF80600C2
:103CB000204605218DF803508DF804608DF80760CB
:103CC000FFF74AFF01208DF805008DF80600204619
:103CD00004218DF803508DF80460FFF73DFF0020AC
:103CE00002B070BD80B582B04F208DF80400002076
:103CF0008DF8050001208DF8060002208DF80700E0
:103D000001A80421FFF728FF002002B080BD0000B9
:103D100080B582B01A484FF0000C49F800C04F201F
:103D20008DF800000520DFF854E08DF80200042033
:103D30008DF803000120012A49F80EC08DF801C05A
:103D40008DF804008DF805108DF806C004DC52B122
:103D5000012A0AD1042006E0022A03D0032A04D152
:103D6000022000E003208DF80600684608218DF847
:103D70000730FFF7F1FE002002B080BD0C0A000002
:103D8000100A000010B582B00C46502003218DF8B7
:103D9000020000208DF8041040218DF803008DF8FA
:103DA00006108DF807000DF1020006218DF8054080
:103DB000FFF7D2FE0A4A2306084B4A4404F07F006C
:103DC0004FF0010158BF09EB0302136801FA00F03C
:103DD00043EA00010020116002B010BD100A00008B
:103DE0000C0A000010B582B00C46502003218DF85B
:103DF000020000208DF8041080218DF803008DF85A
:103E000006108DF807000DF1020006218DF805401F
:103E1000FFF7A2FE0A4A2306084B4A4404F07F003B
:103E20004FF0010158BF09EB0302136801FA00F0DB
:103E300023EA00010020116002B010BD100A00004A
:103E40000C0A00000848074A48440B0658BF09EB13
:103E50000200007801F07F01012202FA01F108401E
:103E6000704700BF100A00000C0A000080B582B045
:103E70004F208DF8030000208DF8040002208DF8FB
:103E8000050003208DF806008DF807100DF10300E2
:103E90000521FFF761FE002002B080BDB0B582B001
:103EA00050208DF80200D81C1546020A8DF8040037
:103EB00020208DF805108DF806000DF10200062176
:103EC0001C468DF803208DF80730FFF745FE284685
:103ED0002146FFF741FE002002B0B0BD80B582B0A0
:103EE00050208DF8020000208DF8030003208DF88B
:103EF000040030208DF805108DF806000DF1020049
:103F000006218DF80720FFF727FE002002B080BDB4
:103F100098B170B50E464FF48A711546044601F00B
:103F2000CEFD0EB1C4F8F060012084F8DC0020461C
:103F30002570FFF78FFE002070BD02207047000043
:103F4000B0B504460120F42584F8DC00605930B196
:103F50004068FFF71FFB217902462046904708354D
:103F6000B5F5867FF2D12046FFF7BCFE2046FFF76D
:103F70007FFE0020B0BD3AB102289CBF01EBC0001B
:103F8000C0F8F420002070470220704780B5FFF78A
:103F900083FE002080BD000070B50C46054600265B
:103FA0002846314600F05FF950B105EBC600D0F865
:103FB000F4000068FFF7EEFA0246284621469047D3
:103FC0000136032EECD1002070BD000070B50C4608
:103FD000054600262846314600F045F950B105EB6C
:103FE000C600D0F8F4004068FFF7D4FA024628462D
:103FF000214690470136032EECD1002070BDB0B5AC
:1040000000F1E8050446284600F062FB94F8E80059
:104010000121B4F8EE20C4F8D41000F01F010229E9
:10402000C4F8D82007D001290AD071B92046294602
:1040300000F025F90EE02046294600F0CDFA09E00F
:104040002046294600F0A6FA04E000F08001204650
:10405000FFF798FE0020B0BDF0B581B015460446CC
:10406000E1B10E46002700BF2046394600F0FBF8BC
:1040700080B104EBC700D0F8F400806950B194F827
:10408000DC10032906D1FFF785FA034620463146A6
:104090002A4698470137032FE6D12DE0D4F8D40003
:1040A000032829D1D4E91F1081420AD9091AE167EE
:1040B000814238BF084682B22046294600F037FDCB
:1040C0001AE000252046294600F0CDF870B104EB37
:1040D000C500D0F8F400006940B194F8DC10032961
:1040E00004D1FFF757FA0146204688470135032DD2
:1040F000E8D1204600F021FD002001B0F0BD000015
:1041000070B50446E1B10D46002600BF2046314699
:1041100000F0A9F880B104EBC600D0F8F4004069C3
:1041200050B194F8DC10032906D1FFF733FA0246A8
:1041300020462946904700BF0136032EE6D14AE0CB
:10414000D4F8D40002283FD1D4E9071081420BD91A
:104150000A1AD4F81011E261014492B22046C4F860
:10416000101100F0D7FC2FE0A169814211D3B1FBFF
:10417000F0F202FB101060B9D4F8D800814208D2E6
:10418000204600210022002500F0C4FCC4F8D850CD
:104190001AE000252046294600F065F870B104EBCE
:1041A000C500D0F8F400C06840B194F8DC100329D1
:1041B00004D1FFF7EFF90146204688470135032D6A
:1041C000E8D1204600F0C4FC94F8E000012804BFC8
:1041D000002084F8E000002070BD0000B0B5044667
:1041E0004020C4F8800020620120002584F8DC0013
:1041F0002046294600F037F850B104EBC500D0F84E
:10420000F4004068FFF7C6F921790246204690473E
:104210000135032DECD10020B0BD02460020117401
:10422000704700207047002070470000B0B504467A
:1042300090F8DC00032814D1002500BF2046294651
:1042400000F011F850B104EBC500D0F8F400C069DB
:1042500020B1FFF79FF90146204688470135032D1D
:10426000ECD10020B0BD022984BF0020704700EBD4
:10427000C100D0F8F400002818BF0120704780B5B5
:104280004A78042A08DD072A0EDC052A13D0062AFC
:104290001AD100F020F81CE082B1012A17D0032ABD
:1042A00012D100F02FF914E0082A0AD0092A0BD104
:1042B00000F0B6F80DE000F091F80AE000F0FEF82A
:1042C00007E000F0E5F804E000F07EFB01E000F01C
:1042D00037F9002080BDB0B582B00D46498804464C
:1042E000080A00220528ADF8062012DC01281BD0A0
:1042F000022825D0032835D1C8B2022837DC00288F
:104300005CD0012862D002282CD1D4F8F000C0681B
:104310000DE006281DD0072822D00F2822D1D4F87E
:10432000F000C06918B91DE0D4F8F0000068FFF78C
:1043300031F9237C02460DF10601184690472DE025
:10434000D4F8F400E8B1217C00290CBF806AC06A6F
:104350001EE0207C30B9D4F8F40018B1406B17E0AF
:10436000207C80B12046294600F02EFB24E0032863
:1043700028D004282ED00528F4D1D4F8F000806984
:10438000D5E700210BE0D4F8F4000028EAD0006B58
:10439000FFF700F901460DF1060088470146BDF818
:1043A000060048B1EA883AB1904238BF024620463A
:1043B000ADF8062000F09AFB02B0B0BDD4F8F000D2
:1043C0004068B4E7D4F8F0000069B0E7D4F8F00032
:1043D0008068ACE7D4F8F0004069A8E7B0B58A88F7
:1043E00004462AB9C88818B994F8DC00032804D117
:1043F0002046BDE8B04000F0E7BA887800F07F05BD
:104400002046294684F8DE50FFF730FD204600F0B4
:1044100094FB002D0CBF0120022084F8DC00B0BD0D
:1044200070B58E780D46022E04461AD294F8DC0040
:10443000032807D0022814D12EB30320666084F825
:10444000DC0008E09EB16068B0421CD0C1B22046DA
:10445000FFF7BCFD666020463146FFF79DFD022850
:1044600011D120462946BDE8704000F0ADBA0220C7
:1044700084F8DC000020606020463146FFF7A6FD8E
:10448000204600F05AFB2046BDE8704000F055BBC6
:10449000CA88012A18BF00F097BA90F8DC20032AD6
:1044A00006D0022A08D10022014641F8082F00E078
:1044B000011D012200F01ABB00F086BAB0B5044617
:1044C00090F8DC0000F0FE0002280DD10120254606
:1044D00045F80C0FD5F8D80058B1204600F038FB4D
:1044E000E06840F0020305E02046BDE8B04000F07F
:1044F0006BBA0323204629460222E360BDE8B040A0
:1045000000F0F4BAB0B50D464988012918BFB0BD16
:104510000446287901210228C4F8E4100BD804EBE2
:10452000C000D0F8F40030B18068FFF733F80246DD
:104530002046294690472046BDE8B04000F0FDBA2D
:10454000B0B5044690F8DC000D4600F0FE000228ED
:104550001AD16888012818BFB0BD28790021022827
:10456000C4F8E4100BD804EBC000D0F8F40030B16C
:104570008068FFF70FF802462046294690472046FC
:10458000BDE8B04000F0D9BA20462946BDE8B040A9
:1045900000F01ABAB0B5044690F8DC000D460328C6
:1045A00014D12879022811D804EBC000D0F8F40007
:1045B00060B18068FEF7EEFF02462046294690472C
:1045C000E88838B9204600F0B8FA03E020462946CA
:1045D00000F0FAF90020B0BDB0B582B00D460979FF
:1045E000044601F07F02072A04D32046294600F042
:1045F000EBF96AE0022911D8287800F06000202841
:104600000CD104EBC100D0F8F40038B18068FEF79B
:10461000C1FF024620462946904756E0687800B31D
:10462000012826D0032850D194F8DC00032824D197
:10463000688838B941F08000802803D02046FFF711
:10464000A1FB297902293DD804EBC100D0F8F40080
:10465000C0B38068FEF79EFF024620462946904779
:1046600030E094F8DC00032811D00228BDD152B903
:104670002BE094F8DC00032818D00228B5D141F0D3
:104680008000802821D02046FFF77CFB1DE02046DB
:10469000FFF7D8FB002818BF0120ADF806000DF188
:1046A00006012046022200F021FA0EE0688860B977
:1046B00042B12046FFF796FB2879022802D804EB86
:1046C000C000C3E7204600F038FA002002B0B0BDB9
:1046D0000A7802704A7842708A78CB7842EA0322DC
:1046E00042800A794B7942EA032282808A79C97929
:1046F00042EA0121C180704710B580210446FFF7CE
:1047000041FB20460021BDE81040FFF73BBBB0B5A0
:1047100082B00D4609780446002011F06001ADF822
:1047200006008DF8050010D020293CD16878A0F152
:104730000A01022936D3022818D0032816D02046B1
:10474000294600F041F902202DE068780B2812D0AC
:104750000A280BD0062825D1E87821280FD0222856
:104760001BD10DF1060000F04DF80CE00DF1050134
:104770002046012214E0204600F0DFF912E00DF19E
:10478000060000F029F8BDF80630EA880146934299
:1047900038BF1A46ADF8062001E00022002120466D
:1047A00000F0A4F9002002B0B0BD10B582210322B0
:1047B00040230446FFF7ACFA20460221032240239F
:1047C000FFF7A6FA204602214022FFF787FB0020D0
:1047D00010BD002070470000084A014609EB0200A6
:1047E00090F8EC000023002805484FF000027844C0
:1047F0000CBF092310460B80704700BF140A00004D
:10480000DE2D0000084A014609EB020090F8EC009A
:104810000023002805484FF0000278440CBF2223F3
:1048200010460B80704700BF140A0000BB2D00002B
:10483000022906D180B504487844FEF73FFCBDE864
:1048400080400020704700BF79E1FFFFB0B502292A
:104850001FD1144602214022FFF740FB0E4D09EB09
:1048600005008079A8B90220FEF728F802460C4816
:1048700021467844FEF740FB02280AD1072109EBC4
:10488000050009F805100121044A817159F8021048
:1048900041800020B0BD00BF90090000FC0900006D
:1048A0003FE1FFFF10B58321032240230446FFF7B9
:1048B0002FFA2046032103224023FFF729FA20463E
:1048C00003214022FFF70AFB002010BD00207047A3
:1048D00000207047032906D180B504487844FEF7CC
:1048E000EDFBBDE880400020704700BFE1E0FFFF26
:1048F000B0B503291FD1144603214022FFF7EEFA79
:104900000E4D09EB05008079A8B90320FDF7D6FF0D
:1049100002460C4821467844FEF7EEFA02280AD1F6
:104920000B2109EB050009F805100521044A8171E6
:1049300059F8021041800020B0BD00BF900900006E
:10494000FC090000A7E0FFFF0248122278440A8019
:10495000704700BFCC2E00000248042278440A8031
:10496000704700BFCE2E000002480E2278440A8015
:10497000704700BFC22E00000248182278440A8007
:10498000704700BFC02E000002480A2278440A8007
:10499000704700BFC82E00000248182278440A80E1
:1049A000704700BFA02E00000248182278440A80F9
:1049B000704700BF902E00000248392278440A80D8
:1049C000704700BF3B2C000080B591F90020B2F188
:1049D000FF3F03DDBDE88040FFF78EBE4A78772AAF
:1049E0000DD0062AF6D14A8840F2EE339A42F1D130
:1049F000CA88122A28BF1222114979441CE08A88E9
:104A0000042A06D1CA88282A28BF28220D497944B9
:104A100012E08A88052A06D1CA88922A28BF9222E3
:104A20000949794408E08A88072AD3D1CA88B22A7A
:104A300028BFB2220549794400F058F880BD00BF74
:104A4000562C0000502E0000402C0000BE2C000010
:104A5000B0B5194D044609EB05004FF48A7101F019
:104A60002EF81648122148440C3001F028F8ECB119
:104A700009EB050420464FF48A7101F020F8104933
:104A8000204679440022FFF743FA0E4A00207A4478
:104A90002146FFF770FA0C4A01207A442146FFF7BD
:104AA0006AFA2046BDE8B040FFF770BA09EB05008E
:104AB000BDE8B040FFF744BA140A000090090000B6
:104AC000AE2B00001A2D0000462D000001460248C2
:104AD000402278440A807047B62D00000146024803
:104AE0000A2278440A807047E62D000080B58C4683
:104AF0000221C0F8D410016AC0E90622C0F810C132
:104B0000914288BF11468BB200216246FFF7C6F979
:104B1000002080BD80B5036A8C46934288BF13464F
:104B20009BB200216246FFF7B9F9002080BD80B535
:104B30000021FFF7D3F9002080BD80B50421C0F823
:104B4000D410002100220023FFF7A8F9002080BD27
:104B500080B50521C0F8D41000210022FFF7BEF96E
:104B6000002080BD154919F80100012823D801381B
:104B700009EB010200EB400302EB8300808CD0B113
:104B800009EB010202EB8302D269A2B1494401EBB5
:104B90008301098C29B902EB800353F8043C0333E9
:104BA00009D1814205D202EB810050F8040C023099
:104BB00001D0002070470120704700BF4806000068
:104BC000134819F8001001291FD8013909EB000218
:104BD00001EB410302EB8301898CB1B109EB0002C7
:104BE00002EB8302D26982B1484400EB8300008C5F
:104BF0004B1E834209DD0239814204DD02EB800055
:104C00004068023001D0002070470120704700BF8B
:104C1000480600000A4819F8001069B101EB41018B
:104C2000484400EB8100818AC08A814201D9012079
:104C300003E001D2FF2000E0002040B2704700BF37
:104C400048060000114819F8001001291BD8013945
:104C500009EB000201EB410102EB8102928C92B15F
:104C600009EB000303EB8103DB6963B1484400EB0C
:104C70008100008C904206D253F8200010F1040FFE
:104C800098BFFEF787BC0020704700BF48060000B1
:104C900070B5214A19F8021001293CD88646481EF1
:104CA00009EB020100EB400301EB8301898C91B316
:104CB00009EB020505EB8305ED6965B301292AD0EF
:104CC00009EB020404EB830C3CF8204F4E1EA64275
:104CD00021DD0239A1420FDB05EB840149688D1CFF
:104CE00008BF70BD033107D14A44002102EB8302A3
:104CF000ACF8001051840AE009EB020101EB8301DA
:104D00004C84611CBEF1000FACF8001003D0BDE86C
:104D1000704000F04DB870BD480600000120FFF75C
:104D2000B7BF000010B5214919F80100012813D8B8
:104D3000013809EB010300EB400203EB82039B8C7B
:104D400053B109EB010404EB8204D4F81CE0BEF17A
:104D5000000F18BF012B00D110BD09EB010404EBBB
:104D6000820C3CF8204F6CB10EEB840353F8043CEA
:104D70000233F1D0494401EB82014C84611EACF84E
:104D800000100EE00EEB830454F8044C033418BFFB
:104D900010BD49449C1E013B01EB8201ACF8004070
:104DA0004B84BDE8104000F003B800BF4806000087
:104DB000F0B581B01E49044609EB010004EB440143
:104DC00000EB810555F81C0F2E4636F8041F50F8ED
:104DD000210010F1040F84BF01B0F0BDFEF7DAFB33
:104DE00029683288076851F82200FEF7D3FB47B1E3
:104DF0000068FEF7CFFB0146204601B0BDE8F04059
:104E000008478068FEF7C6FB29683288054651F8D6
:104E100022100846FEF7BEFB4068FEF7BBFB0246C9
:104E20002046294601B0BDE8F04000F077B800BF49
:104E3000480600002DE9F04581B0374D19F805000E
:104E4000012858D8A0F1010A09EB05000AEB4A062F
:104E500000EB860434F8240F00284CD009EB050140
:104E600001EB860757F81C1F002944D009EB050207
:104E700002EB860838F8202F82423CD251F82200FB
:104E8000FEF788FB806888B13868B8F8001050F8E1
:104E90002100FEF77FFB8068FEF77CFB0146504651
:104EA000002201B0BDE8F04500F038B8208810B30A
:104EB000B8F80020023890421DDB396801EB82030C
:104EC0005B68DF1C1AD0023315D1134601EB820256
:104ED0005268023205D101339AB29042A8F80030EC
:104EE000F4DA09EB050000EB86004384591C5046B8
:104EF000A8F800100BE001B0BDE8F08509EB050053
:104F0000002100EB8602A8F800105046518401B041
:104F1000BDE8F045FFF74CBF4806000070B500B192
:104F200070BD214E0D4609EB0600043022211446C7
:104F300000F0C5FD002DF3D02846FEF72BFB09EB52
:104F40000602918CD06150F82120013209D000BFB7
:104F500001318AB250F822200132F9D109EB060062
:104F60008184E4B12046FEF715FB09EB0601CA690E
:104F7000098C52F821104A1C11D004460846FEF74D
:104F800009FBA0420BD009EB0600028CC169531C3F
:104F90009DB251F8251042844A1C0384EED10020B2
:104FA000BDE87040FFF704BF4806000080B50A491D
:104FB000884208D00949884208D00949884208D166
:104FC000FFF7B0FE05E0FFF735FF02E00120FFF735
:104FD0005FFE002080BD00BF030000800200008053
:104FE0000100008010B5A8B90B4809EB00018A8CBC
:104FF000098C91420ED209EB0004E069FEF7CAFA6F
:10500000218C50F82100FEF7C5FA4068BDE8104039
:10501000FEF7C0BA002010BD48060000024819F88B
:1050200000000138FFF7DEBF4806000080B5FFF73B
:1050300009FE38B1044819F800000138FFF7B8FE3E
:10504000012080BD002080BD4806000010B5044648
:1050500000F080FC0A480B4A484404EBC4017A443F
:1050600000EB81000521C0F8CC2080F8D010064A62
:1050700001217A4480F8C910C0F8DC2010BD00BFBF
:10508000480600007628000037FFFFFF80B500F0DB
:10509000C7FB58B1064909EB010292F8A920112A71
:1050A00002BF494448F20A02A1F8C02080BD00BFF7
:1050B0004806000010B50446FFF7C8FF0748084A35
:1050C000484404EBC40100EB81017A442046C1F856
:1050D000D820BDE8104000F00DBC00BF480600001D
:1050E000BFFFFFFF2DE9F0410D46144990460646EB
:1050F00009EB010200EBC00002EB8007072010491A
:1051000087F8D000012087F8C900107B7944C7F8E0
:10511000CC1052F8041F00071C464FF00803284625
:1051200008BF0A2300F094F9C7F8D8403046C7F802
:10513000DC80BDE8F04100F0DDBB00BF48060000A8
:105140006828000010B50446FFF768FF4168044A6C
:10515000044B7A447B442046BDE81040FFF7C2BFB1
:10516000130000002500000080B50349794400F0D9
:1051700031F9002080BD00BFD5FFFFFF10B5044608
:10518000FFF74CFFD0E900122046BDE8104000F0C8
:105190006DB800002DE9F04581B0DFF89C800D4628
:1051A00009EB08010E7B92460446FFF733FD012808
:1051B0000CD0013010D109EB080707F108001421C9
:1051C00000F07DFC4FF0FF30786005E009EB08004F
:1051D0000430182100F073FC09EB080720463E73E9
:1051E0003E1D00F0B7FBD7F80C01082328431348F5
:1051F000397B784418BF284609074FF0FF31324603
:1052000008BF0A2300F024F9B86048B109EB08018F
:1052100049680138814284BF09EB0801486005E014
:1052200009EB08000430182100F049FC20465146E3
:1052300001B0BDE8F0450847480600005E0A0000DE
:1052400010B50849044609EB0100F021017320461E
:10525000FFF7C8FE4168044A20467A44BDE8104082
:10526000FFF798BF48060000E7FEFFFF2DE9F04179
:1052700082B0DFF84881064609EB080014460D4667
:10528000A8303146202200F01FFC7078102820DC66
:10529000012836D002283DD0102840F08980002D0A
:1052A00045D009EB0806B0684649474C01287C44C4
:1052B0002846794488BF0C46FEF76CF90346D6E9C8
:1052C000010580210130009006F128002246019559
:1052D00037E0A0F1110103296AD200F00F00461E49
:1052E000022E65D809EB080000EB4600858A002DE8
:1052F0005ED07F2D28BF7F25BCB32046FEF74AF93C
:1053000037E0FFF72FFC002852D009EB0800406877
:1053100058B14DE0FFF754FC002849D009EB0800D4
:10532000D0E901010139884242D1002043E009EB74
:105330000800D0E90116254A4B1C28307A44802108
:105340000096FDF751FF09EB08001D49027B023171
:10535000EF2A84BF48F20801CFF6FF71A0F8C01011
:1053600000F12801C0F8C41022E009EB0800D0F8D1
:105370000C0109EB080707EB4601C989144A07F13C
:10538000280446187A44204680212B460096FDF7D3
:105390002BFF387B0A4900F00F000231C7F8C440E8
:1053A0000F2804BF48F20801CFF6FF71A7F8C0101C
:1053B00009EB0800A83002B0BDE8F0814806000003
:1053C0000880FFFFC1080000FF080000230900005B
:1053D000FC0700001A4A90420ED01A4A904217D099
:1053E000194A904218BF7047184809EB00025268EA
:1053F00012B3A2F1010C17E0144809EB000189680F
:1054000021B1484440680139814217D1FFF712BDEC
:105410000E4809EB0002D2E90123013B9A4208BF82
:10542000FFF77CBC02F1010C19F8003009EB000217
:10543000581EC2F804C00847FFF774BC704700BF8D
:105440000300008002000080010000804806000088
:105450002DE9F04D88B00E46074602F10A000C21F6
:105460000793144600F02BFB701C049004D0606876
:10547000B04201D8002097E027B13846FEF78AF8FD
:10548000824603E04A484844D0F80CA1504600F058
:1054900065FB0128C0F285800AEB000B0022002387
:1054A000002502945046CDF804A0039600265746E6
:1054B000CDE905320AEB0608D8451DD2741C0798C1
:1054C000E3B2002152460095FBF704F9722813D885
:1054D00098F80000A0F10901022907D3202805D07F
:1054E0002D2803D05F2818BFB84600BF0A282646DB
:1054F0004746DFD102E000BF3446B8460AEB04005D
:1055000058450FD2039E74B1D0450CD010F8011C41
:105510002C292FDCA1F10902022A04D3202902D070
:105520002CE000BF039E0498DDE9053278B1B24259
:105530000DD102984068B04209D901980299AAEBAE
:10554000000001EB4301012B48810C8229D8013373
:10555000A244022B4FF0000088BF0120DA454FF033
:10556000000138BF0121084018BF0023DA4502447A
:105570009CD318E02D29D6D05F29D4D000782C28D0
:1055800008DCA0F109010229CDD3202818BFA8EB1F
:105590000A04C8E72D28C6D05F28C4D0A8EB0A04A7
:1055A000C1E7012000E0501C08B0BDE8F08D00BF4D
:1055B0004806000070B50546FFF730FD134E04465F
:1055C00009EB0600A8302946202200F07DFA687811
:1055D0000F2806DC01280AD0022812D1FFF7F0FAC2
:1055E00007E0102808D011280BD1606805E0FFF70C
:1055F000B9FA30B1002070BD206809EB0601C1F88E
:10560000C40009EB0600A83070BD00BF48060000CA
:1056100010B5044600F09EF90E4804EBC40148445E
:105620000D4A00EB810105207A4481F8D000012069
:10563000C1F8CC2081F8C9000848094A78447A4466
:10564000C1F8D8002046C1F8DC20BDE8104000F0C9
:1056500051B900BF480600002C24000075FFFFFF71
:105660006BF9FFFF70B50546FFF7D8FC194E0446ED
:1056700009EB0600A8302946202200F025FA6878B8
:105680000F280BDC012818D0022819D00F281CD1B4
:10569000206809EB0601C1F8C40016E010380228A2
:1056A00013D209EB060090F8A91001F00F0104EBEA
:1056B00081014968C0F8C41007E0FFF753FA01E020
:1056C000FFF77EFA08B1002070BD09EB0600A83094
:1056D00070BD00BF4806000010B5044600F03AF95E
:1056E0000A480B4A484404EBC4017A4400EB8100A9
:1056F0000621C0F8CC2080F8D010064A01217A4457
:1057000080F8C910C0F8DC2010BD00BF48060000BA
:105710000A240000ABF8FFFF70B50546FFF77EFCDA
:10572000134E044609EB0600A8302946202200F05B
:10573000CBF968780F2806DC01280AD0022812D19C
:10574000FFF73EFA07E0102808D011280BD1606857
:1057500005E0FFF707FA30B1002070BD206809EBC3
:105760000601C1F8C40009EB0600A83070BD00BFF7
:105770004806000010B5044600F0ECF80E4804EBB3
:10578000C40148440D4A00EB810105207A4481F8A8
:10579000D0000120C1F8CC2081F8C9000848094A8E
:1057A00078447A44C1F8D8002046C1F8DC20BDE82E
:1057B000104000F09FB800BF4806000028240000F9
:1057C00075FFFFFF07F8FFFF80B5FFF74BFF58B1EC
:1057D000064909EB010292F8A920102A22BF494488
:1057E00048F20A02A1F8C02080BD00BF48060000B0
:1057F00010B50446FFF770FF0748084A484404EB19
:10580000C40100EB81017A442046C1F8D820BDE8EC
:10581000104000F06FB800BF48060000BFFFFFFF58
:1058200070B50546FFF7FAFB144E044609EB060077
:10583000A8302946202200F047F96878022804D0D1
:10584000012807D1FFF78EF901E0FFF7B9F980B120
:10585000002070BD09EB060090F8A90010F0F00FD1
:1058600007D000F00F0054F8200009EB0601C1F842
:10587000C40009EB0600A83070BD00BF4806000058
:10588000B0B50A4C19F8040068B909EB040505F134
:10589000C800242100F013F90020C5E90700686260
:1058A000012009F804000138B0BD00BF480600001F
:1058B00080B5FFF7BBFB00B180BD0D4819F80010A3
:1058C000012909D109EB000100220020A1F8CA201A
:1058D000BDE8804000F00EB80029EDD109EB0001D1
:1058E0004978AA2902BF48446921417080BD00BFA0
:1058F00048060000B0B5164D044619F8051099B1D8
:10590000601C884210D1FDF7EDF809EB050004EBAF
:10591000C40100EB8101002201F1C800A1F8CA20F6
:10592000BDE8B04000F026B8002918BF0121B4F14D
:10593000FF3018BF0120084218BFB0BD09EB0500B9
:105940004078AA2802BF09EB050069214170B0BD6B
:105950004806000010B50446FDF7C4F804B110BDB8
:10596000034824214844C83000F0A9F810BD00BF06
:10597000480600002DE9F04581B00446FEF792F894
:10598000AA2803D1FEF7AAF8AA284FD16078A0B3BD
:10599000608894F80880404531D2DFF898A0471C11
:1059A000460100BF0130608019F80A00616801EB10
:1059B000060568B100EBC00009EB0A0101EB8000AD
:1059C000D0F8B41021B128468847A0B1012800D1F1
:1059D000284628B1012808BF2846FCF777FA03E0DB
:1059E00009EB0A00407808BB207A874207D260881A
:1059F00001372036D6E70020EBE74FF0000860883B
:105A0000404513D1FEF7F2F86088E168013060800C
:105A100019B100200025884720B106482178484464
:105A2000417003E0034865804844457001B0BDE81B
:105A3000F08500BF4806000080B510B1FDF7D4FD29
:105A400003E046F68510FCF73DFEBDE88040FCF71C
:105A5000CDBE000010B5B8B1144C022009EB040211
:105A600092F8201309F8040002F53E7002F5237243
:105A7000FBF742FBB0F1FF3F0DDD09EB040000F541
:105A80002370FDF7D1FD0DE00848002109F8001052
:105A900046F6851004E0002009F804004BF20800E7
:105AA000FCF710FEBDE81040FCF7A0BE2403000088
:105AB000130A00EB010C43548CF8012070470022BC
:105AC00000F004B800F00DB800F018B813460A460C
:105AD000194600F02DB800F000B80A46002100F089
